{
  "contractName": "Audio",
  "abi": [
    {
      "inputs": [],
      "stateMutability": "nonpayable",
      "type": "constructor"
    },
    {
      "anonymous": false,
      "inputs": [
        {
          "components": [
            {
              "internalType": "string",
              "name": "title",
              "type": "string"
            },
            {
              "internalType": "string",
              "name": "artist",
              "type": "string"
            },
            {
              "internalType": "string",
              "name": "genre",
              "type": "string"
            },
            {
              "internalType": "uint256",
              "name": "year",
              "type": "uint256"
            },
            {
              "internalType": "uint256",
              "name": "price",
              "type": "uint256"
            },
            {
              "internalType": "bool",
              "name": "is_for_sale",
              "type": "bool"
            },
            {
              "internalType": "bytes32",
              "name": "fingerprint",
              "type": "bytes32"
            },
            {
              "internalType": "address payable",
              "name": "holder",
              "type": "address"
            },
            {
              "internalType": "string",
              "name": "uri",
              "type": "string"
            }
          ],
          "indexed": false,
          "internalType": "struct Audio.Record",
          "name": "record",
          "type": "tuple"
        }
      ],
      "name": "RecordRegistered",
      "type": "event"
    },
    {
      "anonymous": false,
      "inputs": [
        {
          "components": [
            {
              "internalType": "string",
              "name": "title",
              "type": "string"
            },
            {
              "internalType": "string",
              "name": "artist",
              "type": "string"
            },
            {
              "internalType": "string",
              "name": "genre",
              "type": "string"
            },
            {
              "internalType": "uint256",
              "name": "year",
              "type": "uint256"
            },
            {
              "internalType": "uint256",
              "name": "price",
              "type": "uint256"
            },
            {
              "internalType": "bool",
              "name": "is_for_sale",
              "type": "bool"
            },
            {
              "internalType": "bytes32",
              "name": "fingerprint",
              "type": "bytes32"
            },
            {
              "internalType": "address payable",
              "name": "holder",
              "type": "address"
            },
            {
              "internalType": "string",
              "name": "uri",
              "type": "string"
            }
          ],
          "indexed": false,
          "internalType": "struct Audio.Record",
          "name": "record",
          "type": "tuple"
        }
      ],
      "name": "RecordUpdated",
      "type": "event"
    },
    {
      "inputs": [
        {
          "internalType": "uint256",
          "name": "",
          "type": "uint256"
        }
      ],
      "name": "recordList",
      "outputs": [
        {
          "internalType": "bytes32",
          "name": "",
          "type": "bytes32"
        }
      ],
      "stateMutability": "view",
      "type": "function",
      "constant": true
    },
    {
      "inputs": [
        {
          "internalType": "string",
          "name": "title",
          "type": "string"
        },
        {
          "internalType": "string",
          "name": "artist",
          "type": "string"
        },
        {
          "internalType": "string",
          "name": "genre",
          "type": "string"
        },
        {
          "internalType": "uint256",
          "name": "year",
          "type": "uint256"
        },
        {
          "internalType": "uint256",
          "name": "price",
          "type": "uint256"
        },
        {
          "internalType": "bool",
          "name": "is_for_sale",
          "type": "bool"
        },
        {
          "internalType": "bytes32",
          "name": "fingerprint",
          "type": "bytes32"
        },
        {
          "internalType": "string",
          "name": "uri",
          "type": "string"
        }
      ],
      "name": "registerRecord",
      "outputs": [],
      "stateMutability": "nonpayable",
      "type": "function"
    },
    {
      "inputs": [
        {
          "internalType": "bytes32",
          "name": "key",
          "type": "bytes32"
        }
      ],
      "name": "getRecord",
      "outputs": [
        {
          "components": [
            {
              "internalType": "string",
              "name": "title",
              "type": "string"
            },
            {
              "internalType": "string",
              "name": "artist",
              "type": "string"
            },
            {
              "internalType": "string",
              "name": "genre",
              "type": "string"
            },
            {
              "internalType": "uint256",
              "name": "year",
              "type": "uint256"
            },
            {
              "internalType": "uint256",
              "name": "price",
              "type": "uint256"
            },
            {
              "internalType": "bool",
              "name": "is_for_sale",
              "type": "bool"
            },
            {
              "internalType": "bytes32",
              "name": "fingerprint",
              "type": "bytes32"
            },
            {
              "internalType": "address payable",
              "name": "holder",
              "type": "address"
            },
            {
              "internalType": "string",
              "name": "uri",
              "type": "string"
            }
          ],
          "internalType": "struct Audio.Record",
          "name": "",
          "type": "tuple"
        }
      ],
      "stateMutability": "view",
      "type": "function",
      "constant": true
    },
    {
      "inputs": [
        {
          "internalType": "bytes32",
          "name": "key",
          "type": "bytes32"
        }
      ],
      "name": "buyRecord",
      "outputs": [],
      "stateMutability": "payable",
      "type": "function",
      "payable": true
    },
    {
      "inputs": [
        {
          "internalType": "bytes32",
          "name": "key",
          "type": "bytes32"
        },
        {
          "internalType": "bool",
          "name": "status",
          "type": "bool"
        }
      ],
      "name": "setIsForSale",
      "outputs": [],
      "stateMutability": "nonpayable",
      "type": "function"
    },
    {
      "inputs": [
        {
          "internalType": "bytes32",
          "name": "key",
          "type": "bytes32"
        },
        {
          "internalType": "uint256",
          "name": "price",
          "type": "uint256"
        }
      ],
      "name": "setPrice",
      "outputs": [],
      "stateMutability": "nonpayable",
      "type": "function"
    },
    {
      "inputs": [
        {
          "internalType": "bytes32",
          "name": "key",
          "type": "bytes32"
        },
        {
          "internalType": "address payable",
          "name": "new_holder",
          "type": "address"
        }
      ],
      "name": "transferRecord",
      "outputs": [],
      "stateMutability": "nonpayable",
      "type": "function"
    },
    {
      "inputs": [],
      "name": "getOwner",
      "outputs": [
        {
          "internalType": "address",
          "name": "",
          "type": "address"
        }
      ],
      "stateMutability": "view",
      "type": "function",
      "constant": true
    }
  ],
  "bytecode": "0x608060405234801561001057600080fd5b50336000806101000a81548173ffffffffffffffffffffffffffffffffffffffff021916908373ffffffffffffffffffffffffffffffffffffffff16021790555061266e806100606000396000f3fe60806040526004361061007b5760003560e01c8063893d20e81161004e578063893d20e81461014c578063a0e2227a14610177578063e1b253d7146101a0578063fe89566d146101bc5761007b565b806310d8d74d1461008057806319da83a8146100a9578063213681cd146100e65780637d79223714610123575b600080fd5b34801561008c57600080fd5b506100a760048036038101906100a29190611dae565b6101e5565b005b3480156100b557600080fd5b506100d060048036038101906100cb9190611dee565b6106de565b6040516100dd9190611e2a565b60405180910390f35b3480156100f257600080fd5b5061010d60048036038101906101089190611e45565b610702565b60405161011a919061205f565b60405180910390f35b34801561012f57600080fd5b5061014a600480360381019061014591906120ad565b610a0d565b005b34801561015857600080fd5b50610161610f0c565b60405161016e919061210e565b60405180910390f35b34801561018357600080fd5b5061019e60048036038101906101999190612155565b610f35565b005b6101ba60048036038101906101b59190611e45565b61145c565b005b3480156101c857600080fd5b506101e360048036038101906101de91906122ca565b6119f3565b005b81338073ffffffffffffffffffffffffffffffffffffffff166002600084815260200190815260200160002060070160009054906101000a900473ffffffffffffffffffffffffffffffffffffffff1673ffffffffffffffffffffffffffffffffffffffff161461028b576040517f08c379a000000000000000000000000000000000000000000000000000000000815260040161028290612473565b60405180910390fd5b600060026000868152602001908152602001600020604051806101200160405290816000820180546102bc906124c2565b80601f01602080910402602001604051908101604052809291908181526020018280546102e8906124c2565b80156103355780601f1061030a57610100808354040283529160200191610335565b820191906000526020600020905b81548152906001019060200180831161031857829003601f168201915b5050505050815260200160018201805461034e906124c2565b80601f016020809104026020016040519081016040528092919081815260200182805461037a906124c2565b80156103c75780601f1061039c576101008083540402835291602001916103c7565b820191906000526020600020905b8154815290600101906020018083116103aa57829003601f168201915b505050505081526020016002820180546103e0906124c2565b80601f016020809104026020016040519081016040528092919081815260200182805461040c906124c2565b80156104595780601f1061042e57610100808354040283529160200191610459565b820191906000526020600020905b81548152906001019060200180831161043c57829003601f168201915b5050505050815260200160038201548152602001600482015481526020016005820160009054906101000a900460ff16151515158152602001600682015481526020016007820160009054906101000a900473ffffffffffffffffffffffffffffffffffffffff1673ffffffffffffffffffffffffffffffffffffffff1673ffffffffffffffffffffffffffffffffffffffff168152602001600882018054610501906124c2565b80601f016020809104026020016040519081016040528092919081815260200182805461052d906124c2565b801561057a5780601f1061054f5761010080835404028352916020019161057a565b820191906000526020600020905b81548152906001019060200180831161055d57829003601f168201915b505050505081525050905083816080018181525050806002600087815260200190815260200160002060008201518160000190805190602001906105bf929190611c24565b5060208201518160010190805190602001906105dc929190611c24565b5060408201518160020190805190602001906105f9929190611c24565b50606082015181600301556080820151816004015560a08201518160050160006101000a81548160ff02191690831515021790555060c0820151816006015560e08201518160070160006101000a81548173ffffffffffffffffffffffffffffffffffffffff021916908373ffffffffffffffffffffffffffffffffffffffff16021790555061010082015181600801908051906020019061069c929190611c24565b509050507fb1b6abb753e6060819ae126fa36e969f4128ccaca4eb2bd9e8277d3803556efc816040516106cf919061205f565b60405180910390a15050505050565b600181815481106106ee57600080fd5b906000526020600020016000915090505481565b61070a611caa565b6000600260008481526020019081526020016000206040518061012001604052908160008201805461073b906124c2565b80601f0160208091040260200160405190810160405280929190818152602001828054610767906124c2565b80156107b45780601f10610789576101008083540402835291602001916107b4565b820191906000526020600020905b81548152906001019060200180831161079757829003601f168201915b505050505081526020016001820180546107cd906124c2565b80601f01602080910402602001604051908101604052809291908181526020018280546107f9906124c2565b80156108465780601f1061081b57610100808354040283529160200191610846565b820191906000526020600020905b81548152906001019060200180831161082957829003601f168201915b5050505050815260200160028201805461085f906124c2565b80601f016020809104026020016040519081016040528092919081815260200182805461088b906124c2565b80156108d85780601f106108ad576101008083540402835291602001916108d8565b820191906000526020600020905b8154815290600101906020018083116108bb57829003601f168201915b5050505050815260200160038201548152602001600482015481526020016005820160009054906101000a900460ff16151515158152602001600682015481526020016007820160009054906101000a900473ffffffffffffffffffffffffffffffffffffffff1673ffffffffffffffffffffffffffffffffffffffff1673ffffffffffffffffffffffffffffffffffffffff168152602001600882018054610980906124c2565b80601f01602080910402602001604051908101604052809291908181526020018280546109ac906124c2565b80156109f95780601f106109ce576101008083540402835291602001916109f9565b820191906000526020600020905b8154815290600101906020018083116109dc57829003601f168201915b505050505081525050905080915050919050565b81338073ffffffffffffffffffffffffffffffffffffffff166002600084815260200190815260200160002060070160009054906101000a900473ffffffffffffffffffffffffffffffffffffffff1673ffffffffffffffffffffffffffffffffffffffff1614610ab3576040517f08c379a0000000000000000000000000000000000000000000000000000000008152600401610aaa90612473565b60405180910390fd5b60006002600086815260200190815260200160002060405180610120016040529081600082018054610ae4906124c2565b80601f0160208091040260200160405190810160405280929190818152602001828054610b10906124c2565b8015610b5d5780601f10610b3257610100808354040283529160200191610b5d565b820191906000526020600020905b815481529060010190602001808311610b4057829003601f168201915b50505050508152602001600182018054610b76906124c2565b80601f0160208091040260200160405190810160405280929190818152602001828054610ba2906124c2565b8015610bef5780601f10610bc457610100808354040283529160200191610bef565b820191906000526020600020905b815481529060010190602001808311610bd257829003601f168201915b50505050508152602001600282018054610c08906124c2565b80601f0160208091040260200160405190810160405280929190818152602001828054610c34906124c2565b8015610c815780601f10610c5657610100808354040283529160200191610c81565b820191906000526020600020905b815481529060010190602001808311610c6457829003601f168201915b5050505050815260200160038201548152602001600482015481526020016005820160009054906101000a900460ff16151515158152602001600682015481526020016007820160009054906101000a900473ffffffffffffffffffffffffffffffffffffffff1673ffffffffffffffffffffffffffffffffffffffff1673ffffffffffffffffffffffffffffffffffffffff168152602001600882018054610d29906124c2565b80601f0160208091040260200160405190810160405280929190818152602001828054610d55906124c2565b8015610da25780601f10610d7757610100808354040283529160200191610da2565b820191906000526020600020905b815481529060010190602001808311610d8557829003601f168201915b5050505050815250509050838160a001901515908115158152505080600260008781526020019081526020016000206000820151816000019080519060200190610ded929190611c24565b506020820151816001019080519060200190610e0a929190611c24565b506040820151816002019080519060200190610e27929190611c24565b50606082015181600301556080820151816004015560a08201518160050160006101000a81548160ff02191690831515021790555060c0820151816006015560e08201518160070160006101000a81548173ffffffffffffffffffffffffffffffffffffffff021916908373ffffffffffffffffffffffffffffffffffffffff160217905550610100820151816008019080519060200190610eca929190611c24565b509050507fb1b6abb753e6060819ae126fa36e969f4128ccaca4eb2bd9e8277d3803556efc81604051610efd919061205f565b60405180910390a15050505050565b60008060009054906101000a900473ffffffffffffffffffffffffffffffffffffffff16905090565b81338073ffffffffffffffffffffffffffffffffffffffff166002600084815260200190815260200160002060070160009054906101000a900473ffffffffffffffffffffffffffffffffffffffff1673ffffffffffffffffffffffffffffffffffffffff1614610fdb576040517f08c379a0000000000000000000000000000000000000000000000000000000008152600401610fd290612473565b60405180910390fd5b6000600260008681526020019081526020016000206040518061012001604052908160008201805461100c906124c2565b80601f0160208091040260200160405190810160405280929190818152602001828054611038906124c2565b80156110855780601f1061105a57610100808354040283529160200191611085565b820191906000526020600020905b81548152906001019060200180831161106857829003601f168201915b5050505050815260200160018201805461109e906124c2565b80601f01602080910402602001604051908101604052809291908181526020018280546110ca906124c2565b80156111175780601f106110ec57610100808354040283529160200191611117565b820191906000526020600020905b8154815290600101906020018083116110fa57829003601f168201915b50505050508152602001600282018054611130906124c2565b80601f016020809104026020016040519081016040528092919081815260200182805461115c906124c2565b80156111a95780601f1061117e576101008083540402835291602001916111a9565b820191906000526020600020905b81548152906001019060200180831161118c57829003601f168201915b5050505050815260200160038201548152602001600482015481526020016005820160009054906101000a900460ff16151515158152602001600682015481526020016007820160009054906101000a900473ffffffffffffffffffffffffffffffffffffffff1673ffffffffffffffffffffffffffffffffffffffff1673ffffffffffffffffffffffffffffffffffffffff168152602001600882018054611251906124c2565b80601f016020809104026020016040519081016040528092919081815260200182805461127d906124c2565b80156112ca5780601f1061129f576101008083540402835291602001916112ca565b820191906000526020600020905b8154815290600101906020018083116112ad57829003601f168201915b5050505050815250509050838160e0019073ffffffffffffffffffffffffffffffffffffffff16908173ffffffffffffffffffffffffffffffffffffffff16815250508060026000878152602001908152602001600020600082015181600001908051906020019061133d929190611c24565b50602082015181600101908051906020019061135a929190611c24565b506040820151816002019080519060200190611377929190611c24565b50606082015181600301556080820151816004015560a08201518160050160006101000a81548160ff02191690831515021790555060c0820151816006015560e08201518160070160006101000a81548173ffffffffffffffffffffffffffffffffffffffff021916908373ffffffffffffffffffffffffffffffffffffffff16021790555061010082015181600801908051906020019061141a929190611c24565b509050507fb1b6abb753e6060819ae126fa36e969f4128ccaca4eb2bd9e8277d3803556efc8160405161144d919061205f565b60405180910390a15050505050565b806002600082815260200190815260200160002060050160009054906101000a900460ff166114c0576040517f08c379a00000000000000000000000000000000000000000000000000000000081526004016114b790612540565b60405180910390fd5b34600260008481526020019081526020016000206004015414611518576040517f08c379a000000000000000000000000000000000000000000000000000000000815260040161150f906125ac565b60405180910390fd5b60006002600084815260200190815260200160002060405180610120016040529081600082018054611549906124c2565b80601f0160208091040260200160405190810160405280929190818152602001828054611575906124c2565b80156115c25780601f10611597576101008083540402835291602001916115c2565b820191906000526020600020905b8154815290600101906020018083116115a557829003601f168201915b505050505081526020016001820180546115db906124c2565b80601f0160208091040260200160405190810160405280929190818152602001828054611607906124c2565b80156116545780601f1061162957610100808354040283529160200191611654565b820191906000526020600020905b81548152906001019060200180831161163757829003601f168201915b5050505050815260200160028201805461166d906124c2565b80601f0160208091040260200160405190810160405280929190818152602001828054611699906124c2565b80156116e65780601f106116bb576101008083540402835291602001916116e6565b820191906000526020600020905b8154815290600101906020018083116116c957829003601f168201915b5050505050815260200160038201548152602001600482015481526020016005820160009054906101000a900460ff16151515158152602001600682015481526020016007820160009054906101000a900473ffffffffffffffffffffffffffffffffffffffff1673ffffffffffffffffffffffffffffffffffffffff1673ffffffffffffffffffffffffffffffffffffffff16815260200160088201805461178e906124c2565b80601f01602080910402602001604051908101604052809291908181526020018280546117ba906124c2565b80156118075780601f106117dc57610100808354040283529160200191611807565b820191906000526020600020905b8154815290600101906020018083116117ea57829003601f168201915b505050505081525050905060008160a00190151590811515815250508060e0015173ffffffffffffffffffffffffffffffffffffffff166108fc349081150290604051600060405180830381858888f1935050505015801561186d573d6000803e3d6000fd5b50338160e0019073ffffffffffffffffffffffffffffffffffffffff16908173ffffffffffffffffffffffffffffffffffffffff1681525050806002600085815260200190815260200160002060008201518160000190805190602001906118d6929190611c24565b5060208201518160010190805190602001906118f3929190611c24565b506040820151816002019080519060200190611910929190611c24565b50606082015181600301556080820151816004015560a08201518160050160006101000a81548160ff02191690831515021790555060c0820151816006015560e08201518160070160006101000a81548173ffffffffffffffffffffffffffffffffffffffff021916908373ffffffffffffffffffffffffffffffffffffffff1602179055506101008201518160080190805190602001906119b3929190611c24565b509050507fb1b6abb753e6060819ae126fa36e969f4128ccaca4eb2bd9e8277d3803556efc816040516119e6919061205f565b60405180910390a1505050565b8160026000848152602001908152602001600020600601541415611a4c576040517f08c379a0000000000000000000000000000000000000000000000000000000008152600401611a4390612618565b60405180910390fd5b60006040518061012001604052808a815260200189815260200188815260200187815260200186815260200185151581526020018481526020013373ffffffffffffffffffffffffffffffffffffffff16815260200183815250905080600260008581526020019081526020016000206000820151816000019080519060200190611ad8929190611c24565b506020820151816001019080519060200190611af5929190611c24565b506040820151816002019080519060200190611b12929190611c24565b50606082015181600301556080820151816004015560a08201518160050160006101000a81548160ff02191690831515021790555060c0820151816006015560e08201518160070160006101000a81548173ffffffffffffffffffffffffffffffffffffffff021916908373ffffffffffffffffffffffffffffffffffffffff160217905550610100820151816008019080519060200190611bb5929190611c24565b5090505060018390806001815401808255809150506001900390600052602060002001600090919091909150557f92ae9d8a5fe816305b9caf392ffa1e06a43a43bf1bd291cd63fb72ecd56d97ee81604051611c11919061205f565b60405180910390a1505050505050505050565b828054611c30906124c2565b90600052602060002090601f016020900481019282611c525760008555611c99565b82601f10611c6b57805160ff1916838001178555611c99565b82800160010185558215611c99579182015b82811115611c98578251825591602001919060010190611c7d565b5b509050611ca69190611d11565b5090565b604051806101200160405280606081526020016060815260200160608152602001600081526020016000815260200160001515815260200160008019168152602001600073ffffffffffffffffffffffffffffffffffffffff168152602001606081525090565b5b80821115611d2a576000816000905550600101611d12565b5090565b6000604051905090565b600080fd5b600080fd5b6000819050919050565b611d5581611d42565b8114611d6057600080fd5b50565b600081359050611d7281611d4c565b92915050565b6000819050919050565b611d8b81611d78565b8114611d9657600080fd5b50565b600081359050611da881611d82565b92915050565b60008060408385031215611dc557611dc4611d38565b5b6000611dd385828601611d63565b9250506020611de485828601611d99565b9150509250929050565b600060208284031215611e0457611e03611d38565b5b6000611e1284828501611d99565b91505092915050565b611e2481611d42565b82525050565b6000602082019050611e3f6000830184611e1b565b92915050565b600060208284031215611e5b57611e5a611d38565b5b6000611e6984828501611d63565b91505092915050565b600081519050919050565b600082825260208201905092915050565b60005b83811015611eac578082015181840152602081019050611e91565b83811115611ebb576000848401525b50505050565b6000601f19601f8301169050919050565b6000611edd82611e72565b611ee78185611e7d565b9350611ef7818560208601611e8e565b611f0081611ec1565b840191505092915050565b611f1481611d78565b82525050565b60008115159050919050565b611f2f81611f1a565b82525050565b611f3e81611d42565b82525050565b600073ffffffffffffffffffffffffffffffffffffffff82169050919050565b6000611f6f82611f44565b9050919050565b611f7f81611f64565b82525050565b6000610120830160008301518482036000860152611fa38282611ed2565b91505060208301518482036020860152611fbd8282611ed2565b91505060408301518482036040860152611fd78282611ed2565b9150506060830151611fec6060860182611f0b565b506080830151611fff6080860182611f0b565b5060a083015161201260a0860182611f26565b5060c083015161202560c0860182611f35565b5060e083015161203860e0860182611f76565b506101008301518482036101008601526120528282611ed2565b9150508091505092915050565b600060208201905081810360008301526120798184611f85565b905092915050565b61208a81611f1a565b811461209557600080fd5b50565b6000813590506120a781612081565b92915050565b600080604083850312156120c4576120c3611d38565b5b60006120d285828601611d63565b92505060206120e385828601612098565b9150509250929050565b60006120f882611f44565b9050919050565b612108816120ed565b82525050565b600060208201905061212360008301846120ff565b92915050565b61213281611f64565b811461213d57600080fd5b50565b60008135905061214f81612129565b92915050565b6000806040838503121561216c5761216b611d38565b5b600061217a85828601611d63565b925050602061218b85828601612140565b9150509250929050565b600080fd5b600080fd5b7f4e487b7100000000000000000000000000000000000000000000000000000000600052604160045260246000fd5b6121d782611ec1565b810181811067ffffffffffffffff821117156121f6576121f561219f565b5b80604052505050565b6000612209611d2e565b905061221582826121ce565b919050565b600067ffffffffffffffff8211156122355761223461219f565b5b61223e82611ec1565b9050602081019050919050565b82818337600083830152505050565b600061226d6122688461221a565b6121ff565b9050828152602081018484840111156122895761228861219a565b5b61229484828561224b565b509392505050565b600082601f8301126122b1576122b0612195565b5b81356122c184826020860161225a565b91505092915050565b600080600080600080600080610100898b0312156122eb576122ea611d38565b5b600089013567ffffffffffffffff81111561230957612308611d3d565b5b6123158b828c0161229c565b985050602089013567ffffffffffffffff81111561233657612335611d3d565b5b6123428b828c0161229c565b975050604089013567ffffffffffffffff81111561236357612362611d3d565b5b61236f8b828c0161229c565b96505060606123808b828c01611d99565b95505060806123918b828c01611d99565b94505060a06123a28b828c01612098565b93505060c06123b38b828c01611d63565b92505060e089013567ffffffffffffffff8111156123d4576123d3611d3d565b5b6123e08b828c0161229c565b9150509295985092959890939650565b600082825260208201905092915050565b7f43616c6c6572206973206e6f742074686520686f6c646572206f66207468697360008201527f207265636f726400000000000000000000000000000000000000000000000000602082015250565b600061245d6027836123f0565b915061246882612401565b604082019050919050565b6000602082019050818103600083015261248c81612450565b9050919050565b7f4e487b7100000000000000000000000000000000000000000000000000000000600052602260045260246000fd5b600060028204905060018216806124da57607f821691505b602082108114156124ee576124ed612493565b5b50919050565b7f5265636f7264206973206e6f7420666f722073616c6500000000000000000000600082015250565b600061252a6016836123f0565b9150612535826124f4565b602082019050919050565b600060208201905081810360008301526125598161251d565b9050919050565b7f496e76616c696420616d6d6f756e7420737570706c6965640000000000000000600082015250565b60006125966018836123f0565b91506125a182612560565b602082019050919050565b600060208201905081810360008301526125c581612589565b9050919050565b7f5265636f726420616c7265616479206578697374730000000000000000000000600082015250565b60006126026015836123f0565b915061260d826125cc565b602082019050919050565b60006020820190508181036000830152612631816125f5565b905091905056fea2646970667358221220bf6bb9b0893263e802f9569759ab6760a32f5e368aae2a4c0482f6b93c18214c64736f6c634300080b0033",
  "immutableReferences": {},
  "source": "// SPDX-License-Identifier: GPL-3.0\r\n\r\npragma solidity >=0.7.0 <0.9.0;\r\n\r\ncontract Audio {\r\n    struct Record {\r\n        string title;\r\n        string artist;\r\n        string genre;\r\n        uint year;\r\n        uint price;\r\n        bool is_for_sale;\r\n        bytes32 fingerprint;\r\n        address payable holder;\r\n        string uri;\r\n    }\r\n    address private owner;\r\n    bytes32[] public recordList;\r\n    mapping(bytes32 => Record) records;\r\n\r\n    event RecordUpdated(\r\n        Record record\r\n    );\r\n\r\n    event RecordRegistered(\r\n        Record record\r\n    );\r\n\r\n    modifier onlyIfForSale(bytes32 key) {\r\n        require(records[key].is_for_sale, \"Record is not for sale\");\r\n        _;\r\n    }\r\n\r\n    modifier isHolder(bytes32 key, address holder) {\r\n        require(records[key].holder == holder, \"Caller is not the holder of this record\");\r\n        _;\r\n    }\r\n\r\n    modifier isOwner() {\r\n        require(msg.sender == owner, \"Caller is not the owner of this contract\");\r\n        _;\r\n    }\r\n\r\n    constructor() {\r\n        owner = msg.sender;\r\n    }\r\n\r\n    /**\r\n        Register a new record\r\n        @param title The title of the record\r\n        @param artist The artist of the record\r\n        @param genre The genre of the record\r\n        @param year The year of the record\r\n        @param price The price of the record\r\n        @param is_for_sale Whether the record is for sale\r\n        @param fingerprint The fingerprint of the record\r\n     */\r\n    function registerRecord(\r\n        string memory title,\r\n        string memory artist,\r\n        string memory genre,\r\n        uint year,\r\n        uint price, // price in Wei\r\n        bool is_for_sale,\r\n        bytes32 fingerprint,\r\n        string memory uri // ipfs link to the record\r\n    ) public {\r\n        require(records[fingerprint].fingerprint != fingerprint, \"Record already exists\");\r\n\r\n        Record memory record = Record(title, artist, genre, year, price, is_for_sale, fingerprint, payable(msg.sender), uri);\r\n        records[fingerprint] = record;\r\n\r\n        recordList.push(fingerprint);\r\n\r\n        emit RecordRegistered(record);\r\n    }\r\n\r\n    /**\r\n        Get info about a record\r\n        @param key The fingerprint of the record to retrieve.\r\n     */\r\n    function getRecord(bytes32 key) public view returns (Record memory) {\r\n        Record memory record = records[key];\r\n\r\n        return record;\r\n    }\r\n\r\n    /**\r\n        Buy a record.\r\n        @param key The fingerprint of the record to buy.\r\n     */\r\n    function buyRecord(bytes32 key) payable public onlyIfForSale(key) {\r\n        require(records[key].price == msg.value, \"Invalid ammount supplied\");\r\n\r\n        Record memory record = records[key];\r\n        record.is_for_sale = false;\r\n\r\n        record.holder.transfer(msg.value);\r\n\r\n        record.holder = payable(msg.sender);\r\n        records[key] = record;\r\n\r\n        emit RecordUpdated(record);\r\n    }\r\n\r\n    /**\r\n        Make the record available for purchase.\r\n        @param key The fingerprint of the record to be made available.\r\n     */\r\n    function setIsForSale(bytes32 key, bool status) public isHolder(key, msg.sender) {\r\n        Record memory record = records[key];\r\n        record.is_for_sale = status;\r\n        records[key] = record;\r\n\r\n        emit RecordUpdated(record);\r\n    }\r\n\r\n    function setPrice(bytes32 key, uint price) public isHolder(key, msg.sender) {\r\n        Record memory record = records[key];\r\n        record.price = price;\r\n        records[key] = record;\r\n\r\n        emit RecordUpdated(record);\r\n    }\r\n\r\n    /**\r\n        Transfer ownership of a record directly to another address.\r\n        @param key The fingerprint of the record to get.\r\n        @param new_holder The new holder of the record.\r\n     */\r\n    function transferRecord(bytes32 key, address payable new_holder) public isHolder(key, msg.sender) {\r\n        Record memory record = records[key];\r\n        record.holder = new_holder;\r\n        records[key] = record;\r\n\r\n        emit RecordUpdated(record);\r\n    }\r\n\r\n    function getOwner() public view returns (address) {\r\n        return owner;\r\n    }\r\n}",
  "sourcePath": "D:\\User Data\\Desktop\\dev\\AudioDAPP\\contracts\\Audio.sol",
  "compiler": {
    "name": "solc",
    "version": "0.8.11+commit.d7f03943.Emscripten.clang"
  },
  "schemaVersion": "3.4.4",
  "updatedAt": "2022-01-23T14:35:50.235Z",
  "networkType": "ethereum",
  "devdoc": {
    "kind": "dev",
    "methods": {
      "buyRecord(bytes32)": {
        "params": {
          "key": "The fingerprint of the record to buy."
        }
      },
      "getRecord(bytes32)": {
        "params": {
          "key": "The fingerprint of the record to retrieve."
        }
      },
      "registerRecord(string,string,string,uint256,uint256,bool,bytes32,string)": {
        "params": {
          "artist": "The artist of the record",
          "fingerprint": "The fingerprint of the record",
          "genre": "The genre of the record",
          "is_for_sale": "Whether the record is for sale",
          "price": "The price of the record",
          "title": "The title of the record",
          "year": "The year of the record"
        }
      },
      "setIsForSale(bytes32,bool)": {
        "params": {
          "key": "The fingerprint of the record to be made available."
        }
      },
      "transferRecord(bytes32,address)": {
        "params": {
          "key": "The fingerprint of the record to get.",
          "new_holder": "The new holder of the record."
        }
      }
    },
    "version": 1
  },
  "userdoc": {
    "kind": "user",
    "methods": {
      "buyRecord(bytes32)": {
        "notice": "Buy a record."
      },
      "getRecord(bytes32)": {
        "notice": "Get info about a record"
      },
      "registerRecord(string,string,string,uint256,uint256,bool,bytes32,string)": {
        "notice": "Register a new record"
      },
      "setIsForSale(bytes32,bool)": {
        "notice": "Make the record available for purchase."
      },
      "transferRecord(bytes32,address)": {
        "notice": "Transfer ownership of a record directly to another address."
      }
    },
    "version": 1
  }
}