{
  "contractName": "Audio",
  "abi": [
    {
      "inputs": [],
      "stateMutability": "nonpayable",
      "type": "constructor"
    },
    {
      "anonymous": false,
      "inputs": [
        {
          "components": [
            {
              "internalType": "string",
              "name": "title",
              "type": "string"
            },
            {
              "internalType": "string",
              "name": "artist",
              "type": "string"
            },
            {
              "internalType": "string",
              "name": "genre",
              "type": "string"
            },
            {
              "internalType": "uint256",
              "name": "year",
              "type": "uint256"
            },
            {
              "internalType": "uint256",
              "name": "price",
              "type": "uint256"
            },
            {
              "internalType": "bool",
              "name": "is_for_sale",
              "type": "bool"
            },
            {
              "internalType": "bytes32",
              "name": "fingerprint",
              "type": "bytes32"
            },
            {
              "internalType": "address payable",
              "name": "holder",
              "type": "address"
            },
            {
              "internalType": "string",
              "name": "uri",
              "type": "string"
            }
          ],
          "indexed": false,
          "internalType": "struct Audio.Record",
          "name": "record",
          "type": "tuple"
        }
      ],
      "name": "RecordRegistered",
      "type": "event"
    },
    {
      "anonymous": false,
      "inputs": [
        {
          "components": [
            {
              "internalType": "string",
              "name": "title",
              "type": "string"
            },
            {
              "internalType": "string",
              "name": "artist",
              "type": "string"
            },
            {
              "internalType": "string",
              "name": "genre",
              "type": "string"
            },
            {
              "internalType": "uint256",
              "name": "year",
              "type": "uint256"
            },
            {
              "internalType": "uint256",
              "name": "price",
              "type": "uint256"
            },
            {
              "internalType": "bool",
              "name": "is_for_sale",
              "type": "bool"
            },
            {
              "internalType": "bytes32",
              "name": "fingerprint",
              "type": "bytes32"
            },
            {
              "internalType": "address payable",
              "name": "holder",
              "type": "address"
            },
            {
              "internalType": "string",
              "name": "uri",
              "type": "string"
            }
          ],
          "indexed": false,
          "internalType": "struct Audio.Record",
          "name": "record",
          "type": "tuple"
        }
      ],
      "name": "RecordUpdated",
      "type": "event"
    },
    {
      "inputs": [
        {
          "internalType": "string",
          "name": "title",
          "type": "string"
        },
        {
          "internalType": "string",
          "name": "artist",
          "type": "string"
        },
        {
          "internalType": "string",
          "name": "genre",
          "type": "string"
        },
        {
          "internalType": "uint256",
          "name": "year",
          "type": "uint256"
        },
        {
          "internalType": "uint256",
          "name": "price",
          "type": "uint256"
        },
        {
          "internalType": "bool",
          "name": "is_for_sale",
          "type": "bool"
        },
        {
          "internalType": "bytes32",
          "name": "fingerprint",
          "type": "bytes32"
        },
        {
          "internalType": "string",
          "name": "uri",
          "type": "string"
        }
      ],
      "name": "registerRecord",
      "outputs": [],
      "stateMutability": "nonpayable",
      "type": "function"
    },
    {
      "inputs": [
        {
          "internalType": "bytes32",
          "name": "key",
          "type": "bytes32"
        }
      ],
      "name": "getRecord",
      "outputs": [
        {
          "components": [
            {
              "internalType": "string",
              "name": "title",
              "type": "string"
            },
            {
              "internalType": "string",
              "name": "artist",
              "type": "string"
            },
            {
              "internalType": "string",
              "name": "genre",
              "type": "string"
            },
            {
              "internalType": "uint256",
              "name": "year",
              "type": "uint256"
            },
            {
              "internalType": "uint256",
              "name": "price",
              "type": "uint256"
            },
            {
              "internalType": "bool",
              "name": "is_for_sale",
              "type": "bool"
            },
            {
              "internalType": "bytes32",
              "name": "fingerprint",
              "type": "bytes32"
            },
            {
              "internalType": "address payable",
              "name": "holder",
              "type": "address"
            },
            {
              "internalType": "string",
              "name": "uri",
              "type": "string"
            }
          ],
          "internalType": "struct Audio.Record",
          "name": "",
          "type": "tuple"
        }
      ],
      "stateMutability": "view",
      "type": "function",
      "constant": true
    },
    {
      "inputs": [
        {
          "internalType": "bytes32",
          "name": "key",
          "type": "bytes32"
        }
      ],
      "name": "buyRecord",
      "outputs": [],
      "stateMutability": "payable",
      "type": "function",
      "payable": true
    },
    {
      "inputs": [
        {
          "internalType": "bytes32",
          "name": "key",
          "type": "bytes32"
        },
        {
          "internalType": "bool",
          "name": "status",
          "type": "bool"
        }
      ],
      "name": "setIsForSale",
      "outputs": [],
      "stateMutability": "nonpayable",
      "type": "function"
    },
    {
      "inputs": [
        {
          "internalType": "bytes32",
          "name": "key",
          "type": "bytes32"
        },
        {
          "internalType": "uint256",
          "name": "price",
          "type": "uint256"
        }
      ],
      "name": "setPrice",
      "outputs": [],
      "stateMutability": "nonpayable",
      "type": "function"
    },
    {
      "inputs": [
        {
          "internalType": "bytes32",
          "name": "key",
          "type": "bytes32"
        },
        {
          "internalType": "address payable",
          "name": "new_holder",
          "type": "address"
        }
      ],
      "name": "transferRecord",
      "outputs": [],
      "stateMutability": "nonpayable",
      "type": "function"
    },
    {
      "inputs": [],
      "name": "getOwner",
      "outputs": [
        {
          "internalType": "address",
          "name": "",
          "type": "address"
        }
      ],
      "stateMutability": "view",
      "type": "function",
      "constant": true
    }
  ],
  "bytecode": "0x608060405234801561001057600080fd5b50336000806101000a81548173ffffffffffffffffffffffffffffffffffffffff021916908373ffffffffffffffffffffffffffffffffffffffff160217905550612582806100606000396000f3fe6080604052600436106100705760003560e01c8063893d20e81161004e578063893d20e814610104578063a0e2227a1461012f578063e1b253d714610158578063fe89566d1461017457610070565b806310d8d74d14610075578063213681cd1461009e5780637d792237146100db575b600080fd5b34801561008157600080fd5b5061009c60048036038101906100979190611d19565b61019d565b005b3480156100aa57600080fd5b506100c560048036038101906100c09190611d59565b610696565b6040516100d29190611f73565b60405180910390f35b3480156100e757600080fd5b5061010260048036038101906100fd9190611fc1565b6109a1565b005b34801561011057600080fd5b50610119610ea0565b6040516101269190612022565b60405180910390f35b34801561013b57600080fd5b5061015660048036038101906101519190612069565b610ec9565b005b610172600480360381019061016d9190611d59565b6113f0565b005b34801561018057600080fd5b5061019b600480360381019061019691906121de565b611987565b005b81338073ffffffffffffffffffffffffffffffffffffffff166001600084815260200190815260200160002060070160009054906101000a900473ffffffffffffffffffffffffffffffffffffffff1673ffffffffffffffffffffffffffffffffffffffff1614610243576040517f08c379a000000000000000000000000000000000000000000000000000000000815260040161023a90612387565b60405180910390fd5b60006001600086815260200190815260200160002060405180610120016040529081600082018054610274906123d6565b80601f01602080910402602001604051908101604052809291908181526020018280546102a0906123d6565b80156102ed5780601f106102c2576101008083540402835291602001916102ed565b820191906000526020600020905b8154815290600101906020018083116102d057829003601f168201915b50505050508152602001600182018054610306906123d6565b80601f0160208091040260200160405190810160405280929190818152602001828054610332906123d6565b801561037f5780601f106103545761010080835404028352916020019161037f565b820191906000526020600020905b81548152906001019060200180831161036257829003601f168201915b50505050508152602001600282018054610398906123d6565b80601f01602080910402602001604051908101604052809291908181526020018280546103c4906123d6565b80156104115780601f106103e657610100808354040283529160200191610411565b820191906000526020600020905b8154815290600101906020018083116103f457829003601f168201915b5050505050815260200160038201548152602001600482015481526020016005820160009054906101000a900460ff16151515158152602001600682015481526020016007820160009054906101000a900473ffffffffffffffffffffffffffffffffffffffff1673ffffffffffffffffffffffffffffffffffffffff1673ffffffffffffffffffffffffffffffffffffffff1681526020016008820180546104b9906123d6565b80601f01602080910402602001604051908101604052809291908181526020018280546104e5906123d6565b80156105325780601f1061050757610100808354040283529160200191610532565b820191906000526020600020905b81548152906001019060200180831161051557829003601f168201915b50505050508152505090508381608001818152505080600160008781526020019081526020016000206000820151816000019080519060200190610577929190611b8f565b506020820151816001019080519060200190610594929190611b8f565b5060408201518160020190805190602001906105b1929190611b8f565b50606082015181600301556080820151816004015560a08201518160050160006101000a81548160ff02191690831515021790555060c0820151816006015560e08201518160070160006101000a81548173ffffffffffffffffffffffffffffffffffffffff021916908373ffffffffffffffffffffffffffffffffffffffff160217905550610100820151816008019080519060200190610654929190611b8f565b509050507fb1b6abb753e6060819ae126fa36e969f4128ccaca4eb2bd9e8277d3803556efc816040516106879190611f73565b60405180910390a15050505050565b61069e611c15565b600060016000848152602001908152602001600020604051806101200160405290816000820180546106cf906123d6565b80601f01602080910402602001604051908101604052809291908181526020018280546106fb906123d6565b80156107485780601f1061071d57610100808354040283529160200191610748565b820191906000526020600020905b81548152906001019060200180831161072b57829003601f168201915b50505050508152602001600182018054610761906123d6565b80601f016020809104026020016040519081016040528092919081815260200182805461078d906123d6565b80156107da5780601f106107af576101008083540402835291602001916107da565b820191906000526020600020905b8154815290600101906020018083116107bd57829003601f168201915b505050505081526020016002820180546107f3906123d6565b80601f016020809104026020016040519081016040528092919081815260200182805461081f906123d6565b801561086c5780601f106108415761010080835404028352916020019161086c565b820191906000526020600020905b81548152906001019060200180831161084f57829003601f168201915b5050505050815260200160038201548152602001600482015481526020016005820160009054906101000a900460ff16151515158152602001600682015481526020016007820160009054906101000a900473ffffffffffffffffffffffffffffffffffffffff1673ffffffffffffffffffffffffffffffffffffffff1673ffffffffffffffffffffffffffffffffffffffff168152602001600882018054610914906123d6565b80601f0160208091040260200160405190810160405280929190818152602001828054610940906123d6565b801561098d5780601f106109625761010080835404028352916020019161098d565b820191906000526020600020905b81548152906001019060200180831161097057829003601f168201915b505050505081525050905080915050919050565b81338073ffffffffffffffffffffffffffffffffffffffff166001600084815260200190815260200160002060070160009054906101000a900473ffffffffffffffffffffffffffffffffffffffff1673ffffffffffffffffffffffffffffffffffffffff1614610a47576040517f08c379a0000000000000000000000000000000000000000000000000000000008152600401610a3e90612387565b60405180910390fd5b60006001600086815260200190815260200160002060405180610120016040529081600082018054610a78906123d6565b80601f0160208091040260200160405190810160405280929190818152602001828054610aa4906123d6565b8015610af15780601f10610ac657610100808354040283529160200191610af1565b820191906000526020600020905b815481529060010190602001808311610ad457829003601f168201915b50505050508152602001600182018054610b0a906123d6565b80601f0160208091040260200160405190810160405280929190818152602001828054610b36906123d6565b8015610b835780601f10610b5857610100808354040283529160200191610b83565b820191906000526020600020905b815481529060010190602001808311610b6657829003601f168201915b50505050508152602001600282018054610b9c906123d6565b80601f0160208091040260200160405190810160405280929190818152602001828054610bc8906123d6565b8015610c155780601f10610bea57610100808354040283529160200191610c15565b820191906000526020600020905b815481529060010190602001808311610bf857829003601f168201915b5050505050815260200160038201548152602001600482015481526020016005820160009054906101000a900460ff16151515158152602001600682015481526020016007820160009054906101000a900473ffffffffffffffffffffffffffffffffffffffff1673ffffffffffffffffffffffffffffffffffffffff1673ffffffffffffffffffffffffffffffffffffffff168152602001600882018054610cbd906123d6565b80601f0160208091040260200160405190810160405280929190818152602001828054610ce9906123d6565b8015610d365780601f10610d0b57610100808354040283529160200191610d36565b820191906000526020600020905b815481529060010190602001808311610d1957829003601f168201915b5050505050815250509050838160a001901515908115158152505080600160008781526020019081526020016000206000820151816000019080519060200190610d81929190611b8f565b506020820151816001019080519060200190610d9e929190611b8f565b506040820151816002019080519060200190610dbb929190611b8f565b50606082015181600301556080820151816004015560a08201518160050160006101000a81548160ff02191690831515021790555060c0820151816006015560e08201518160070160006101000a81548173ffffffffffffffffffffffffffffffffffffffff021916908373ffffffffffffffffffffffffffffffffffffffff160217905550610100820151816008019080519060200190610e5e929190611b8f565b509050507fb1b6abb753e6060819ae126fa36e969f4128ccaca4eb2bd9e8277d3803556efc81604051610e919190611f73565b60405180910390a15050505050565b60008060009054906101000a900473ffffffffffffffffffffffffffffffffffffffff16905090565b81338073ffffffffffffffffffffffffffffffffffffffff166001600084815260200190815260200160002060070160009054906101000a900473ffffffffffffffffffffffffffffffffffffffff1673ffffffffffffffffffffffffffffffffffffffff1614610f6f576040517f08c379a0000000000000000000000000000000000000000000000000000000008152600401610f6690612387565b60405180910390fd5b60006001600086815260200190815260200160002060405180610120016040529081600082018054610fa0906123d6565b80601f0160208091040260200160405190810160405280929190818152602001828054610fcc906123d6565b80156110195780601f10610fee57610100808354040283529160200191611019565b820191906000526020600020905b815481529060010190602001808311610ffc57829003601f168201915b50505050508152602001600182018054611032906123d6565b80601f016020809104026020016040519081016040528092919081815260200182805461105e906123d6565b80156110ab5780601f10611080576101008083540402835291602001916110ab565b820191906000526020600020905b81548152906001019060200180831161108e57829003601f168201915b505050505081526020016002820180546110c4906123d6565b80601f01602080910402602001604051908101604052809291908181526020018280546110f0906123d6565b801561113d5780601f106111125761010080835404028352916020019161113d565b820191906000526020600020905b81548152906001019060200180831161112057829003601f168201915b5050505050815260200160038201548152602001600482015481526020016005820160009054906101000a900460ff16151515158152602001600682015481526020016007820160009054906101000a900473ffffffffffffffffffffffffffffffffffffffff1673ffffffffffffffffffffffffffffffffffffffff1673ffffffffffffffffffffffffffffffffffffffff1681526020016008820180546111e5906123d6565b80601f0160208091040260200160405190810160405280929190818152602001828054611211906123d6565b801561125e5780601f106112335761010080835404028352916020019161125e565b820191906000526020600020905b81548152906001019060200180831161124157829003601f168201915b5050505050815250509050838160e0019073ffffffffffffffffffffffffffffffffffffffff16908173ffffffffffffffffffffffffffffffffffffffff1681525050806001600087815260200190815260200160002060008201518160000190805190602001906112d1929190611b8f565b5060208201518160010190805190602001906112ee929190611b8f565b50604082015181600201908051906020019061130b929190611b8f565b50606082015181600301556080820151816004015560a08201518160050160006101000a81548160ff02191690831515021790555060c0820151816006015560e08201518160070160006101000a81548173ffffffffffffffffffffffffffffffffffffffff021916908373ffffffffffffffffffffffffffffffffffffffff1602179055506101008201518160080190805190602001906113ae929190611b8f565b509050507fb1b6abb753e6060819ae126fa36e969f4128ccaca4eb2bd9e8277d3803556efc816040516113e19190611f73565b60405180910390a15050505050565b806001600082815260200190815260200160002060050160009054906101000a900460ff16611454576040517f08c379a000000000000000000000000000000000000000000000000000000000815260040161144b90612454565b60405180910390fd5b346001600084815260200190815260200160002060040154146114ac576040517f08c379a00000000000000000000000000000000000000000000000000000000081526004016114a3906124c0565b60405180910390fd5b600060016000848152602001908152602001600020604051806101200160405290816000820180546114dd906123d6565b80601f0160208091040260200160405190810160405280929190818152602001828054611509906123d6565b80156115565780601f1061152b57610100808354040283529160200191611556565b820191906000526020600020905b81548152906001019060200180831161153957829003601f168201915b5050505050815260200160018201805461156f906123d6565b80601f016020809104026020016040519081016040528092919081815260200182805461159b906123d6565b80156115e85780601f106115bd576101008083540402835291602001916115e8565b820191906000526020600020905b8154815290600101906020018083116115cb57829003601f168201915b50505050508152602001600282018054611601906123d6565b80601f016020809104026020016040519081016040528092919081815260200182805461162d906123d6565b801561167a5780601f1061164f5761010080835404028352916020019161167a565b820191906000526020600020905b81548152906001019060200180831161165d57829003601f168201915b5050505050815260200160038201548152602001600482015481526020016005820160009054906101000a900460ff16151515158152602001600682015481526020016007820160009054906101000a900473ffffffffffffffffffffffffffffffffffffffff1673ffffffffffffffffffffffffffffffffffffffff1673ffffffffffffffffffffffffffffffffffffffff168152602001600882018054611722906123d6565b80601f016020809104026020016040519081016040528092919081815260200182805461174e906123d6565b801561179b5780601f106117705761010080835404028352916020019161179b565b820191906000526020600020905b81548152906001019060200180831161177e57829003601f168201915b505050505081525050905060008160a00190151590811515815250508060e0015173ffffffffffffffffffffffffffffffffffffffff166108fc349081150290604051600060405180830381858888f19350505050158015611801573d6000803e3d6000fd5b50338160e0019073ffffffffffffffffffffffffffffffffffffffff16908173ffffffffffffffffffffffffffffffffffffffff16815250508060016000858152602001908152602001600020600082015181600001908051906020019061186a929190611b8f565b506020820151816001019080519060200190611887929190611b8f565b5060408201518160020190805190602001906118a4929190611b8f565b50606082015181600301556080820151816004015560a08201518160050160006101000a81548160ff02191690831515021790555060c0820151816006015560e08201518160070160006101000a81548173ffffffffffffffffffffffffffffffffffffffff021916908373ffffffffffffffffffffffffffffffffffffffff160217905550610100820151816008019080519060200190611947929190611b8f565b509050507fb1b6abb753e6060819ae126fa36e969f4128ccaca4eb2bd9e8277d3803556efc8160405161197a9190611f73565b60405180910390a1505050565b81600160008481526020019081526020016000206006015414156119e0576040517f08c379a00000000000000000000000000000000000000000000000000000000081526004016119d79061252c565b60405180910390fd5b60006040518061012001604052808a815260200189815260200188815260200187815260200186815260200185151581526020018481526020013373ffffffffffffffffffffffffffffffffffffffff16815260200183815250905080600160008581526020019081526020016000206000820151816000019080519060200190611a6c929190611b8f565b506020820151816001019080519060200190611a89929190611b8f565b506040820151816002019080519060200190611aa6929190611b8f565b50606082015181600301556080820151816004015560a08201518160050160006101000a81548160ff02191690831515021790555060c0820151816006015560e08201518160070160006101000a81548173ffffffffffffffffffffffffffffffffffffffff021916908373ffffffffffffffffffffffffffffffffffffffff160217905550610100820151816008019080519060200190611b49929190611b8f565b509050507f92ae9d8a5fe816305b9caf392ffa1e06a43a43bf1bd291cd63fb72ecd56d97ee81604051611b7c9190611f73565b60405180910390a1505050505050505050565b828054611b9b906123d6565b90600052602060002090601f016020900481019282611bbd5760008555611c04565b82601f10611bd657805160ff1916838001178555611c04565b82800160010185558215611c04579182015b82811115611c03578251825591602001919060010190611be8565b5b509050611c119190611c7c565b5090565b604051806101200160405280606081526020016060815260200160608152602001600081526020016000815260200160001515815260200160008019168152602001600073ffffffffffffffffffffffffffffffffffffffff168152602001606081525090565b5b80821115611c95576000816000905550600101611c7d565b5090565b6000604051905090565b600080fd5b600080fd5b6000819050919050565b611cc081611cad565b8114611ccb57600080fd5b50565b600081359050611cdd81611cb7565b92915050565b6000819050919050565b611cf681611ce3565b8114611d0157600080fd5b50565b600081359050611d1381611ced565b92915050565b60008060408385031215611d3057611d2f611ca3565b5b6000611d3e85828601611cce565b9250506020611d4f85828601611d04565b9150509250929050565b600060208284031215611d6f57611d6e611ca3565b5b6000611d7d84828501611cce565b91505092915050565b600081519050919050565b600082825260208201905092915050565b60005b83811015611dc0578082015181840152602081019050611da5565b83811115611dcf576000848401525b50505050565b6000601f19601f8301169050919050565b6000611df182611d86565b611dfb8185611d91565b9350611e0b818560208601611da2565b611e1481611dd5565b840191505092915050565b611e2881611ce3565b82525050565b60008115159050919050565b611e4381611e2e565b82525050565b611e5281611cad565b82525050565b600073ffffffffffffffffffffffffffffffffffffffff82169050919050565b6000611e8382611e58565b9050919050565b611e9381611e78565b82525050565b6000610120830160008301518482036000860152611eb78282611de6565b91505060208301518482036020860152611ed18282611de6565b91505060408301518482036040860152611eeb8282611de6565b9150506060830151611f006060860182611e1f565b506080830151611f136080860182611e1f565b5060a0830151611f2660a0860182611e3a565b5060c0830151611f3960c0860182611e49565b5060e0830151611f4c60e0860182611e8a565b50610100830151848203610100860152611f668282611de6565b9150508091505092915050565b60006020820190508181036000830152611f8d8184611e99565b905092915050565b611f9e81611e2e565b8114611fa957600080fd5b50565b600081359050611fbb81611f95565b92915050565b60008060408385031215611fd857611fd7611ca3565b5b6000611fe685828601611cce565b9250506020611ff785828601611fac565b9150509250929050565b600061200c82611e58565b9050919050565b61201c81612001565b82525050565b60006020820190506120376000830184612013565b92915050565b61204681611e78565b811461205157600080fd5b50565b6000813590506120638161203d565b92915050565b600080604083850312156120805761207f611ca3565b5b600061208e85828601611cce565b925050602061209f85828601612054565b9150509250929050565b600080fd5b600080fd5b7f4e487b7100000000000000000000000000000000000000000000000000000000600052604160045260246000fd5b6120eb82611dd5565b810181811067ffffffffffffffff8211171561210a576121096120b3565b5b80604052505050565b600061211d611c99565b905061212982826120e2565b919050565b600067ffffffffffffffff821115612149576121486120b3565b5b61215282611dd5565b9050602081019050919050565b82818337600083830152505050565b600061218161217c8461212e565b612113565b90508281526020810184848401111561219d5761219c6120ae565b5b6121a884828561215f565b509392505050565b600082601f8301126121c5576121c46120a9565b5b81356121d584826020860161216e565b91505092915050565b600080600080600080600080610100898b0312156121ff576121fe611ca3565b5b600089013567ffffffffffffffff81111561221d5761221c611ca8565b5b6122298b828c016121b0565b985050602089013567ffffffffffffffff81111561224a57612249611ca8565b5b6122568b828c016121b0565b975050604089013567ffffffffffffffff81111561227757612276611ca8565b5b6122838b828c016121b0565b96505060606122948b828c01611d04565b95505060806122a58b828c01611d04565b94505060a06122b68b828c01611fac565b93505060c06122c78b828c01611cce565b92505060e089013567ffffffffffffffff8111156122e8576122e7611ca8565b5b6122f48b828c016121b0565b9150509295985092959890939650565b600082825260208201905092915050565b7f43616c6c6572206973206e6f742074686520686f6c646572206f66207468697360008201527f207265636f726400000000000000000000000000000000000000000000000000602082015250565b6000612371602783612304565b915061237c82612315565b604082019050919050565b600060208201905081810360008301526123a081612364565b9050919050565b7f4e487b7100000000000000000000000000000000000000000000000000000000600052602260045260246000fd5b600060028204905060018216806123ee57607f821691505b60208210811415612402576124016123a7565b5b50919050565b7f5265636f7264206973206e6f7420666f722073616c6500000000000000000000600082015250565b600061243e601683612304565b915061244982612408565b602082019050919050565b6000602082019050818103600083015261246d81612431565b9050919050565b7f496e76616c696420616d6d6f756e7420737570706c6965640000000000000000600082015250565b60006124aa601883612304565b91506124b582612474565b602082019050919050565b600060208201905081810360008301526124d98161249d565b9050919050565b7f5265636f726420616c7265616479206578697374730000000000000000000000600082015250565b6000612516601583612304565b9150612521826124e0565b602082019050919050565b6000602082019050818103600083015261254581612509565b905091905056fea26469706673582212207e165f211cf7d641eeeb295f2bb48d8b0d040fb2b9e72b590125e54372bdaa0164736f6c634300080b0033",
  "immutableReferences": {},
  "source": "// SPDX-License-Identifier: GPL-3.0\r\n\r\npragma solidity >=0.7.0 <0.9.0;\r\n\r\ncontract Audio {\r\n    struct Record {\r\n        string title;\r\n        string artist;\r\n        string genre;\r\n        uint year;\r\n        uint price;\r\n        bool is_for_sale;\r\n        bytes32 fingerprint;\r\n        address payable holder;\r\n        string uri;\r\n    }\r\n    address private owner;\r\n    mapping(bytes32 => Record) records;\r\n\r\n    event RecordUpdated(\r\n        Record record\r\n    );\r\n\r\n    event RecordRegistered(\r\n        Record record\r\n    );\r\n\r\n    modifier onlyIfForSale(bytes32 key) {\r\n        require(records[key].is_for_sale, \"Record is not for sale\");\r\n        _;\r\n    }\r\n\r\n    modifier isHolder(bytes32 key, address holder) {\r\n        require(records[key].holder == holder, \"Caller is not the holder of this record\");\r\n        _;\r\n    }\r\n\r\n    modifier isOwner() {\r\n        require(msg.sender == owner, \"Caller is not the owner of this contract\");\r\n        _;\r\n    }\r\n\r\n    constructor() {\r\n        owner = msg.sender;\r\n    }\r\n\r\n    /**\r\n        Register a new record\r\n        @param title The title of the record\r\n        @param artist The artist of the record\r\n        @param genre The genre of the record\r\n        @param year The year of the record\r\n        @param price The price of the record\r\n        @param is_for_sale Whether the record is for sale\r\n        @param fingerprint The fingerprint of the record\r\n     */\r\n    function registerRecord(\r\n        string memory title,\r\n        string memory artist,\r\n        string memory genre,\r\n        uint year,\r\n        uint price, // price in Wei\r\n        bool is_for_sale,\r\n        bytes32 fingerprint,\r\n        string memory uri\r\n    ) public {\r\n        require(records[fingerprint].fingerprint != fingerprint, \"Record already exists\");\r\n\r\n        Record memory record = Record(title, artist, genre, year, price, is_for_sale, fingerprint, payable(msg.sender), uri);\r\n        records[fingerprint] = record;\r\n\r\n        emit RecordRegistered(record);\r\n    }\r\n\r\n    /**\r\n        Get info about a record\r\n        @param key The fingerprint of the record to retrieve.\r\n     */\r\n    function getRecord(bytes32 key) public view returns (Record memory) {\r\n        Record memory record = records[key];\r\n\r\n        return record;\r\n    }\r\n\r\n    /**\r\n        Buy a record.\r\n        @param key The fingerprint of the record to buy.\r\n     */\r\n    function buyRecord(bytes32 key) payable public onlyIfForSale(key) {\r\n        require(records[key].price == msg.value, \"Invalid ammount supplied\");\r\n\r\n        Record memory record = records[key];\r\n        record.is_for_sale = false;\r\n\r\n        record.holder.transfer(msg.value);\r\n\r\n        record.holder = payable(msg.sender);\r\n        records[key] = record;\r\n\r\n        emit RecordUpdated(record);\r\n    }\r\n\r\n    /**\r\n        Make the record available for purchase.\r\n        @param key The fingerprint of the record to be made available.\r\n     */\r\n    function setIsForSale(bytes32 key, bool status) public isHolder(key, msg.sender) {\r\n        Record memory record = records[key];\r\n        record.is_for_sale = status;\r\n        records[key] = record;\r\n\r\n        emit RecordUpdated(record);\r\n    }\r\n\r\n    function setPrice(bytes32 key, uint price) public isHolder(key, msg.sender) {\r\n        Record memory record = records[key];\r\n        record.price = price;\r\n        records[key] = record;\r\n\r\n        emit RecordUpdated(record);\r\n    }\r\n\r\n    /**\r\n        Transfer ownership of a record directly to another address.\r\n        @param key The fingerprint of the record to get.\r\n        @param new_holder The new holder of the record.\r\n     */\r\n    function transferRecord(bytes32 key, address payable new_holder) public isHolder(key, msg.sender) {\r\n        Record memory record = records[key];\r\n        record.holder = new_holder;\r\n        records[key] = record;\r\n\r\n        emit RecordUpdated(record);\r\n    }\r\n\r\n    function getOwner() public view returns (address) {\r\n        return owner;\r\n    }\r\n}",
  "sourcePath": "D:\\User Data\\Desktop\\dev\\AudioDAPP\\contracts\\Audio.sol",
  "compiler": {
    "name": "solc",
    "version": "0.8.11+commit.d7f03943.Emscripten.clang"
  },
  "schemaVersion": "3.4.4",
  "updatedAt": "2022-01-16T16:06:37.544Z",
  "networkType": "ethereum",
  "devdoc": {
    "kind": "dev",
    "methods": {
      "buyRecord(bytes32)": {
        "params": {
          "key": "The fingerprint of the record to buy."
        }
      },
      "getRecord(bytes32)": {
        "params": {
          "key": "The fingerprint of the record to retrieve."
        }
      },
      "registerRecord(string,string,string,uint256,uint256,bool,bytes32,string)": {
        "params": {
          "artist": "The artist of the record",
          "fingerprint": "The fingerprint of the record",
          "genre": "The genre of the record",
          "is_for_sale": "Whether the record is for sale",
          "price": "The price of the record",
          "title": "The title of the record",
          "year": "The year of the record"
        }
      },
      "setIsForSale(bytes32,bool)": {
        "params": {
          "key": "The fingerprint of the record to be made available."
        }
      },
      "transferRecord(bytes32,address)": {
        "params": {
          "key": "The fingerprint of the record to get.",
          "new_holder": "The new holder of the record."
        }
      }
    },
    "version": 1
  },
  "userdoc": {
    "kind": "user",
    "methods": {
      "buyRecord(bytes32)": {
        "notice": "Buy a record."
      },
      "getRecord(bytes32)": {
        "notice": "Get info about a record"
      },
      "registerRecord(string,string,string,uint256,uint256,bool,bytes32,string)": {
        "notice": "Register a new record"
      },
      "setIsForSale(bytes32,bool)": {
        "notice": "Make the record available for purchase."
      },
      "transferRecord(bytes32,address)": {
        "notice": "Transfer ownership of a record directly to another address."
      }
    },
    "version": 1
  }
}