{
  "contractName": "Audio",
  "abi": [
    {
      "inputs": [],
      "stateMutability": "nonpayable",
      "type": "constructor"
    },
    {
      "anonymous": false,
      "inputs": [
        {
          "components": [
            {
              "internalType": "string",
              "name": "title",
              "type": "string"
            },
            {
              "internalType": "string",
              "name": "artist",
              "type": "string"
            },
            {
              "internalType": "string",
              "name": "genre",
              "type": "string"
            },
            {
              "internalType": "uint256",
              "name": "year",
              "type": "uint256"
            },
            {
              "internalType": "uint256",
              "name": "price",
              "type": "uint256"
            },
            {
              "internalType": "bool",
              "name": "is_for_sale",
              "type": "bool"
            },
            {
              "internalType": "bytes32",
              "name": "fingerprint",
              "type": "bytes32"
            },
            {
              "internalType": "address payable",
              "name": "holder",
              "type": "address"
            },
            {
              "internalType": "string",
              "name": "uri",
              "type": "string"
            }
          ],
          "indexed": false,
          "internalType": "struct Audio.Record",
          "name": "record",
          "type": "tuple"
        }
      ],
      "name": "RecordRegistered",
      "type": "event"
    },
    {
      "anonymous": false,
      "inputs": [
        {
          "components": [
            {
              "internalType": "string",
              "name": "title",
              "type": "string"
            },
            {
              "internalType": "string",
              "name": "artist",
              "type": "string"
            },
            {
              "internalType": "string",
              "name": "genre",
              "type": "string"
            },
            {
              "internalType": "uint256",
              "name": "year",
              "type": "uint256"
            },
            {
              "internalType": "uint256",
              "name": "price",
              "type": "uint256"
            },
            {
              "internalType": "bool",
              "name": "is_for_sale",
              "type": "bool"
            },
            {
              "internalType": "bytes32",
              "name": "fingerprint",
              "type": "bytes32"
            },
            {
              "internalType": "address payable",
              "name": "holder",
              "type": "address"
            },
            {
              "internalType": "string",
              "name": "uri",
              "type": "string"
            }
          ],
          "indexed": false,
          "internalType": "struct Audio.Record",
          "name": "record",
          "type": "tuple"
        }
      ],
      "name": "RecordUpdated",
      "type": "event"
    },
    {
      "inputs": [
        {
          "internalType": "string",
          "name": "title",
          "type": "string"
        },
        {
          "internalType": "string",
          "name": "artist",
          "type": "string"
        },
        {
          "internalType": "string",
          "name": "genre",
          "type": "string"
        },
        {
          "internalType": "uint256",
          "name": "year",
          "type": "uint256"
        },
        {
          "internalType": "uint256",
          "name": "price",
          "type": "uint256"
        },
        {
          "internalType": "bool",
          "name": "is_for_sale",
          "type": "bool"
        },
        {
          "internalType": "bytes32",
          "name": "fingerprint",
          "type": "bytes32"
        },
        {
          "internalType": "string",
          "name": "uri",
          "type": "string"
        }
      ],
      "name": "registerRecord",
      "outputs": [],
      "stateMutability": "nonpayable",
      "type": "function"
    },
    {
      "inputs": [
        {
          "internalType": "bytes32",
          "name": "key",
          "type": "bytes32"
        }
      ],
      "name": "getRecord",
      "outputs": [
        {
          "components": [
            {
              "internalType": "string",
              "name": "title",
              "type": "string"
            },
            {
              "internalType": "string",
              "name": "artist",
              "type": "string"
            },
            {
              "internalType": "string",
              "name": "genre",
              "type": "string"
            },
            {
              "internalType": "uint256",
              "name": "year",
              "type": "uint256"
            },
            {
              "internalType": "uint256",
              "name": "price",
              "type": "uint256"
            },
            {
              "internalType": "bool",
              "name": "is_for_sale",
              "type": "bool"
            },
            {
              "internalType": "bytes32",
              "name": "fingerprint",
              "type": "bytes32"
            },
            {
              "internalType": "address payable",
              "name": "holder",
              "type": "address"
            },
            {
              "internalType": "string",
              "name": "uri",
              "type": "string"
            }
          ],
          "internalType": "struct Audio.Record",
          "name": "",
          "type": "tuple"
        }
      ],
      "stateMutability": "view",
      "type": "function",
      "constant": true
    },
    {
      "inputs": [
        {
          "internalType": "bytes32",
          "name": "key",
          "type": "bytes32"
        }
      ],
      "name": "buyRecord",
      "outputs": [],
      "stateMutability": "payable",
      "type": "function",
      "payable": true
    },
    {
      "inputs": [
        {
          "internalType": "bytes32",
          "name": "key",
          "type": "bytes32"
        },
        {
          "internalType": "bool",
          "name": "status",
          "type": "bool"
        }
      ],
      "name": "setIsForSale",
      "outputs": [],
      "stateMutability": "nonpayable",
      "type": "function"
    },
    {
      "inputs": [
        {
          "internalType": "bytes32",
          "name": "key",
          "type": "bytes32"
        },
        {
          "internalType": "uint256",
          "name": "price",
          "type": "uint256"
        }
      ],
      "name": "setPrice",
      "outputs": [],
      "stateMutability": "nonpayable",
      "type": "function"
    },
    {
      "inputs": [
        {
          "internalType": "bytes32",
          "name": "key",
          "type": "bytes32"
        },
        {
          "internalType": "address payable",
          "name": "new_holder",
          "type": "address"
        }
      ],
      "name": "transferRecord",
      "outputs": [],
      "stateMutability": "nonpayable",
      "type": "function"
    },
    {
      "inputs": [],
      "name": "getRecordList",
      "outputs": [
        {
          "internalType": "bytes32[]",
          "name": "",
          "type": "bytes32[]"
        }
      ],
      "stateMutability": "view",
      "type": "function",
      "constant": true
    },
    {
      "inputs": [],
      "name": "getOwner",
      "outputs": [
        {
          "internalType": "address",
          "name": "",
          "type": "address"
        }
      ],
      "stateMutability": "view",
      "type": "function",
      "constant": true
    }
  ],
  "bytecode": "0x608060405234801561001057600080fd5b50336000806101000a81548173ffffffffffffffffffffffffffffffffffffffff021916908373ffffffffffffffffffffffffffffffffffffffff160217905550612947806100606000396000f3fe60806040526004361061007b5760003560e01c8063893d20e81161004e578063893d20e81461013a578063a0e2227a14610165578063e1b253d71461018e578063fe89566d146101aa5761007b565b806310d8d74d14610080578063213681cd146100a95780635404470b146100e65780637d79223714610111575b600080fd5b34801561008c57600080fd5b506100a760048036038101906100a29190611fa1565b6101d3565b005b3480156100b557600080fd5b506100d060048036038101906100cb9190611fe1565b610729565b6040516100dd91906121fb565b60405180910390f35b3480156100f257600080fd5b506100fb610a91565b60405161010891906122cc565b60405180910390f35b34801561011d57600080fd5b506101386004803603810190610133919061231a565b610ae9565b005b34801561014657600080fd5b5061014f611045565b60405161015c919061237b565b60405180910390f35b34801561017157600080fd5b5061018c600480360381019061018791906123c2565b61106e565b005b6101a860048036038101906101a39190611fe1565b6115f2565b005b3480156101b657600080fd5b506101d160048036038101906101cc9190612537565b611be6565b005b816000801b60026000838152602001908152602001600020600601541161022f576040517f08c379a0000000000000000000000000000000000000000000000000000000008152600401610226906126ba565b60405180910390fd5b82338073ffffffffffffffffffffffffffffffffffffffff166002600084815260200190815260200160002060070160009054906101000a900473ffffffffffffffffffffffffffffffffffffffff1673ffffffffffffffffffffffffffffffffffffffff16146102d5576040517f08c379a00000000000000000000000000000000000000000000000000000000081526004016102cc9061274c565b60405180910390fd5b600060026000878152602001908152602001600020604051806101200160405290816000820180546103069061279b565b80601f01602080910402602001604051908101604052809291908181526020018280546103329061279b565b801561037f5780601f106103545761010080835404028352916020019161037f565b820191906000526020600020905b81548152906001019060200180831161036257829003601f168201915b505050505081526020016001820180546103989061279b565b80601f01602080910402602001604051908101604052809291908181526020018280546103c49061279b565b80156104115780601f106103e657610100808354040283529160200191610411565b820191906000526020600020905b8154815290600101906020018083116103f457829003601f168201915b5050505050815260200160028201805461042a9061279b565b80601f01602080910402602001604051908101604052809291908181526020018280546104569061279b565b80156104a35780601f10610478576101008083540402835291602001916104a3565b820191906000526020600020905b81548152906001019060200180831161048657829003601f168201915b5050505050815260200160038201548152602001600482015481526020016005820160009054906101000a900460ff16151515158152602001600682015481526020016007820160009054906101000a900473ffffffffffffffffffffffffffffffffffffffff1673ffffffffffffffffffffffffffffffffffffffff1673ffffffffffffffffffffffffffffffffffffffff16815260200160088201805461054b9061279b565b80601f01602080910402602001604051908101604052809291908181526020018280546105779061279b565b80156105c45780601f10610599576101008083540402835291602001916105c4565b820191906000526020600020905b8154815290600101906020018083116105a757829003601f168201915b50505050508152505090508481608001818152505080600260008881526020019081526020016000206000820151816000019080519060200190610609929190611e17565b506020820151816001019080519060200190610626929190611e17565b506040820151816002019080519060200190610643929190611e17565b50606082015181600301556080820151816004015560a08201518160050160006101000a81548160ff02191690831515021790555060c0820151816006015560e08201518160070160006101000a81548173ffffffffffffffffffffffffffffffffffffffff021916908373ffffffffffffffffffffffffffffffffffffffff1602179055506101008201518160080190805190602001906106e6929190611e17565b509050507fb1b6abb753e6060819ae126fa36e969f4128ccaca4eb2bd9e8277d3803556efc8160405161071991906121fb565b60405180910390a1505050505050565b610731611e9d565b816000801b60026000838152602001908152602001600020600601541161078d576040517f08c379a0000000000000000000000000000000000000000000000000000000008152600401610784906126ba565b60405180910390fd5b600060026000858152602001908152602001600020604051806101200160405290816000820180546107be9061279b565b80601f01602080910402602001604051908101604052809291908181526020018280546107ea9061279b565b80156108375780601f1061080c57610100808354040283529160200191610837565b820191906000526020600020905b81548152906001019060200180831161081a57829003601f168201915b505050505081526020016001820180546108509061279b565b80601f016020809104026020016040519081016040528092919081815260200182805461087c9061279b565b80156108c95780601f1061089e576101008083540402835291602001916108c9565b820191906000526020600020905b8154815290600101906020018083116108ac57829003601f168201915b505050505081526020016002820180546108e29061279b565b80601f016020809104026020016040519081016040528092919081815260200182805461090e9061279b565b801561095b5780601f106109305761010080835404028352916020019161095b565b820191906000526020600020905b81548152906001019060200180831161093e57829003601f168201915b5050505050815260200160038201548152602001600482015481526020016005820160009054906101000a900460ff16151515158152602001600682015481526020016007820160009054906101000a900473ffffffffffffffffffffffffffffffffffffffff1673ffffffffffffffffffffffffffffffffffffffff1673ffffffffffffffffffffffffffffffffffffffff168152602001600882018054610a039061279b565b80601f0160208091040260200160405190810160405280929190818152602001828054610a2f9061279b565b8015610a7c5780601f10610a5157610100808354040283529160200191610a7c565b820191906000526020600020905b815481529060010190602001808311610a5f57829003601f168201915b50505050508152505090508092505050919050565b60606001805480602002602001604051908101604052809291908181526020018280548015610adf57602002820191906000526020600020905b815481526020019060010190808311610acb575b5050505050905090565b816000801b600260008381526020019081526020016000206006015411610b45576040517f08c379a0000000000000000000000000000000000000000000000000000000008152600401610b3c906126ba565b60405180910390fd5b82338073ffffffffffffffffffffffffffffffffffffffff166002600084815260200190815260200160002060070160009054906101000a900473ffffffffffffffffffffffffffffffffffffffff1673ffffffffffffffffffffffffffffffffffffffff1614610beb576040517f08c379a0000000000000000000000000000000000000000000000000000000008152600401610be29061274c565b60405180910390fd5b60006002600087815260200190815260200160002060405180610120016040529081600082018054610c1c9061279b565b80601f0160208091040260200160405190810160405280929190818152602001828054610c489061279b565b8015610c955780601f10610c6a57610100808354040283529160200191610c95565b820191906000526020600020905b815481529060010190602001808311610c7857829003601f168201915b50505050508152602001600182018054610cae9061279b565b80601f0160208091040260200160405190810160405280929190818152602001828054610cda9061279b565b8015610d275780601f10610cfc57610100808354040283529160200191610d27565b820191906000526020600020905b815481529060010190602001808311610d0a57829003601f168201915b50505050508152602001600282018054610d409061279b565b80601f0160208091040260200160405190810160405280929190818152602001828054610d6c9061279b565b8015610db95780601f10610d8e57610100808354040283529160200191610db9565b820191906000526020600020905b815481529060010190602001808311610d9c57829003601f168201915b5050505050815260200160038201548152602001600482015481526020016005820160009054906101000a900460ff16151515158152602001600682015481526020016007820160009054906101000a900473ffffffffffffffffffffffffffffffffffffffff1673ffffffffffffffffffffffffffffffffffffffff1673ffffffffffffffffffffffffffffffffffffffff168152602001600882018054610e619061279b565b80601f0160208091040260200160405190810160405280929190818152602001828054610e8d9061279b565b8015610eda5780601f10610eaf57610100808354040283529160200191610eda565b820191906000526020600020905b815481529060010190602001808311610ebd57829003601f168201915b5050505050815250509050848160a001901515908115158152505080600260008881526020019081526020016000206000820151816000019080519060200190610f25929190611e17565b506020820151816001019080519060200190610f42929190611e17565b506040820151816002019080519060200190610f5f929190611e17565b50606082015181600301556080820151816004015560a08201518160050160006101000a81548160ff02191690831515021790555060c0820151816006015560e08201518160070160006101000a81548173ffffffffffffffffffffffffffffffffffffffff021916908373ffffffffffffffffffffffffffffffffffffffff160217905550610100820151816008019080519060200190611002929190611e17565b509050507fb1b6abb753e6060819ae126fa36e969f4128ccaca4eb2bd9e8277d3803556efc8160405161103591906121fb565b60405180910390a1505050505050565b60008060009054906101000a900473ffffffffffffffffffffffffffffffffffffffff16905090565b816000801b6002600083815260200190815260200160002060060154116110ca576040517f08c379a00000000000000000000000000000000000000000000000000000000081526004016110c1906126ba565b60405180910390fd5b82338073ffffffffffffffffffffffffffffffffffffffff166002600084815260200190815260200160002060070160009054906101000a900473ffffffffffffffffffffffffffffffffffffffff1673ffffffffffffffffffffffffffffffffffffffff1614611170576040517f08c379a00000000000000000000000000000000000000000000000000000000081526004016111679061274c565b60405180910390fd5b600060026000878152602001908152602001600020604051806101200160405290816000820180546111a19061279b565b80601f01602080910402602001604051908101604052809291908181526020018280546111cd9061279b565b801561121a5780601f106111ef5761010080835404028352916020019161121a565b820191906000526020600020905b8154815290600101906020018083116111fd57829003601f168201915b505050505081526020016001820180546112339061279b565b80601f016020809104026020016040519081016040528092919081815260200182805461125f9061279b565b80156112ac5780601f10611281576101008083540402835291602001916112ac565b820191906000526020600020905b81548152906001019060200180831161128f57829003601f168201915b505050505081526020016002820180546112c59061279b565b80601f01602080910402602001604051908101604052809291908181526020018280546112f19061279b565b801561133e5780601f106113135761010080835404028352916020019161133e565b820191906000526020600020905b81548152906001019060200180831161132157829003601f168201915b5050505050815260200160038201548152602001600482015481526020016005820160009054906101000a900460ff16151515158152602001600682015481526020016007820160009054906101000a900473ffffffffffffffffffffffffffffffffffffffff1673ffffffffffffffffffffffffffffffffffffffff1673ffffffffffffffffffffffffffffffffffffffff1681526020016008820180546113e69061279b565b80601f01602080910402602001604051908101604052809291908181526020018280546114129061279b565b801561145f5780601f106114345761010080835404028352916020019161145f565b820191906000526020600020905b81548152906001019060200180831161144257829003601f168201915b5050505050815250509050848160e0019073ffffffffffffffffffffffffffffffffffffffff16908173ffffffffffffffffffffffffffffffffffffffff1681525050806002600088815260200190815260200160002060008201518160000190805190602001906114d2929190611e17565b5060208201518160010190805190602001906114ef929190611e17565b50604082015181600201908051906020019061150c929190611e17565b50606082015181600301556080820151816004015560a08201518160050160006101000a81548160ff02191690831515021790555060c0820151816006015560e08201518160070160006101000a81548173ffffffffffffffffffffffffffffffffffffffff021916908373ffffffffffffffffffffffffffffffffffffffff1602179055506101008201518160080190805190602001906115af929190611e17565b509050507fb1b6abb753e6060819ae126fa36e969f4128ccaca4eb2bd9e8277d3803556efc816040516115e291906121fb565b60405180910390a1505050505050565b806000801b60026000838152602001908152602001600020600601541161164e576040517f08c379a0000000000000000000000000000000000000000000000000000000008152600401611645906126ba565b60405180910390fd5b816002600082815260200190815260200160002060050160009054906101000a900460ff166116b2576040517f08c379a00000000000000000000000000000000000000000000000000000000081526004016116a990612819565b60405180910390fd5b3460026000858152602001908152602001600020600401541461170a576040517f08c379a000000000000000000000000000000000000000000000000000000000815260040161170190612885565b60405180910390fd5b6000600260008581526020019081526020016000206040518061012001604052908160008201805461173b9061279b565b80601f01602080910402602001604051908101604052809291908181526020018280546117679061279b565b80156117b45780601f10611789576101008083540402835291602001916117b4565b820191906000526020600020905b81548152906001019060200180831161179757829003601f168201915b505050505081526020016001820180546117cd9061279b565b80601f01602080910402602001604051908101604052809291908181526020018280546117f99061279b565b80156118465780601f1061181b57610100808354040283529160200191611846565b820191906000526020600020905b81548152906001019060200180831161182957829003601f168201915b5050505050815260200160028201805461185f9061279b565b80601f016020809104026020016040519081016040528092919081815260200182805461188b9061279b565b80156118d85780601f106118ad576101008083540402835291602001916118d8565b820191906000526020600020905b8154815290600101906020018083116118bb57829003601f168201915b5050505050815260200160038201548152602001600482015481526020016005820160009054906101000a900460ff16151515158152602001600682015481526020016007820160009054906101000a900473ffffffffffffffffffffffffffffffffffffffff1673ffffffffffffffffffffffffffffffffffffffff1673ffffffffffffffffffffffffffffffffffffffff1681526020016008820180546119809061279b565b80601f01602080910402602001604051908101604052809291908181526020018280546119ac9061279b565b80156119f95780601f106119ce576101008083540402835291602001916119f9565b820191906000526020600020905b8154815290600101906020018083116119dc57829003601f168201915b505050505081525050905060008160a00190151590811515815250508060e0015173ffffffffffffffffffffffffffffffffffffffff166108fc349081150290604051600060405180830381858888f19350505050158015611a5f573d6000803e3d6000fd5b50338160e0019073ffffffffffffffffffffffffffffffffffffffff16908173ffffffffffffffffffffffffffffffffffffffff168152505080600260008681526020019081526020016000206000820151816000019080519060200190611ac8929190611e17565b506020820151816001019080519060200190611ae5929190611e17565b506040820151816002019080519060200190611b02929190611e17565b50606082015181600301556080820151816004015560a08201518160050160006101000a81548160ff02191690831515021790555060c0820151816006015560e08201518160070160006101000a81548173ffffffffffffffffffffffffffffffffffffffff021916908373ffffffffffffffffffffffffffffffffffffffff160217905550610100820151816008019080519060200190611ba5929190611e17565b509050507fb1b6abb753e6060819ae126fa36e969f4128ccaca4eb2bd9e8277d3803556efc81604051611bd891906121fb565b60405180910390a150505050565b8160026000848152602001908152602001600020600601541415611c3f576040517f08c379a0000000000000000000000000000000000000000000000000000000008152600401611c36906128f1565b60405180910390fd5b60006040518061012001604052808a815260200189815260200188815260200187815260200186815260200185151581526020018481526020013373ffffffffffffffffffffffffffffffffffffffff16815260200183815250905080600260008581526020019081526020016000206000820151816000019080519060200190611ccb929190611e17565b506020820151816001019080519060200190611ce8929190611e17565b506040820151816002019080519060200190611d05929190611e17565b50606082015181600301556080820151816004015560a08201518160050160006101000a81548160ff02191690831515021790555060c0820151816006015560e08201518160070160006101000a81548173ffffffffffffffffffffffffffffffffffffffff021916908373ffffffffffffffffffffffffffffffffffffffff160217905550610100820151816008019080519060200190611da8929190611e17565b5090505060018390806001815401808255809150506001900390600052602060002001600090919091909150557f92ae9d8a5fe816305b9caf392ffa1e06a43a43bf1bd291cd63fb72ecd56d97ee81604051611e0491906121fb565b60405180910390a1505050505050505050565b828054611e239061279b565b90600052602060002090601f016020900481019282611e455760008555611e8c565b82601f10611e5e57805160ff1916838001178555611e8c565b82800160010185558215611e8c579182015b82811115611e8b578251825591602001919060010190611e70565b5b509050611e999190611f04565b5090565b604051806101200160405280606081526020016060815260200160608152602001600081526020016000815260200160001515815260200160008019168152602001600073ffffffffffffffffffffffffffffffffffffffff168152602001606081525090565b5b80821115611f1d576000816000905550600101611f05565b5090565b6000604051905090565b600080fd5b600080fd5b6000819050919050565b611f4881611f35565b8114611f5357600080fd5b50565b600081359050611f6581611f3f565b92915050565b6000819050919050565b611f7e81611f6b565b8114611f8957600080fd5b50565b600081359050611f9b81611f75565b92915050565b60008060408385031215611fb857611fb7611f2b565b5b6000611fc685828601611f56565b9250506020611fd785828601611f8c565b9150509250929050565b600060208284031215611ff757611ff6611f2b565b5b600061200584828501611f56565b91505092915050565b600081519050919050565b600082825260208201905092915050565b60005b8381101561204857808201518184015260208101905061202d565b83811115612057576000848401525b50505050565b6000601f19601f8301169050919050565b60006120798261200e565b6120838185612019565b935061209381856020860161202a565b61209c8161205d565b840191505092915050565b6120b081611f6b565b82525050565b60008115159050919050565b6120cb816120b6565b82525050565b6120da81611f35565b82525050565b600073ffffffffffffffffffffffffffffffffffffffff82169050919050565b600061210b826120e0565b9050919050565b61211b81612100565b82525050565b600061012083016000830151848203600086015261213f828261206e565b91505060208301518482036020860152612159828261206e565b91505060408301518482036040860152612173828261206e565b915050606083015161218860608601826120a7565b50608083015161219b60808601826120a7565b5060a08301516121ae60a08601826120c2565b5060c08301516121c160c08601826120d1565b5060e08301516121d460e0860182612112565b506101008301518482036101008601526121ee828261206e565b9150508091505092915050565b600060208201905081810360008301526122158184612121565b905092915050565b600081519050919050565b600082825260208201905092915050565b6000819050602082019050919050565b600061225583836120d1565b60208301905092915050565b6000602082019050919050565b60006122798261221d565b6122838185612228565b935061228e83612239565b8060005b838110156122bf5781516122a68882612249565b97506122b183612261565b925050600181019050612292565b5085935050505092915050565b600060208201905081810360008301526122e6818461226e565b905092915050565b6122f7816120b6565b811461230257600080fd5b50565b600081359050612314816122ee565b92915050565b6000806040838503121561233157612330611f2b565b5b600061233f85828601611f56565b925050602061235085828601612305565b9150509250929050565b6000612365826120e0565b9050919050565b6123758161235a565b82525050565b6000602082019050612390600083018461236c565b92915050565b61239f81612100565b81146123aa57600080fd5b50565b6000813590506123bc81612396565b92915050565b600080604083850312156123d9576123d8611f2b565b5b60006123e785828601611f56565b92505060206123f8858286016123ad565b9150509250929050565b600080fd5b600080fd5b7f4e487b7100000000000000000000000000000000000000000000000000000000600052604160045260246000fd5b6124448261205d565b810181811067ffffffffffffffff821117156124635761246261240c565b5b80604052505050565b6000612476611f21565b9050612482828261243b565b919050565b600067ffffffffffffffff8211156124a2576124a161240c565b5b6124ab8261205d565b9050602081019050919050565b82818337600083830152505050565b60006124da6124d584612487565b61246c565b9050828152602081018484840111156124f6576124f5612407565b5b6125018482856124b8565b509392505050565b600082601f83011261251e5761251d612402565b5b813561252e8482602086016124c7565b91505092915050565b600080600080600080600080610100898b03121561255857612557611f2b565b5b600089013567ffffffffffffffff81111561257657612575611f30565b5b6125828b828c01612509565b985050602089013567ffffffffffffffff8111156125a3576125a2611f30565b5b6125af8b828c01612509565b975050604089013567ffffffffffffffff8111156125d0576125cf611f30565b5b6125dc8b828c01612509565b96505060606125ed8b828c01611f8c565b95505060806125fe8b828c01611f8c565b94505060a061260f8b828c01612305565b93505060c06126208b828c01611f56565b92505060e089013567ffffffffffffffff81111561264157612640611f30565b5b61264d8b828c01612509565b9150509295985092959890939650565b600082825260208201905092915050565b7f5265636f7264206e6f7420666f756e6400000000000000000000000000000000600082015250565b60006126a460108361265d565b91506126af8261266e565b602082019050919050565b600060208201905081810360008301526126d381612697565b9050919050565b7f43616c6c6572206973206e6f742074686520686f6c646572206f66207468697360008201527f207265636f726400000000000000000000000000000000000000000000000000602082015250565b600061273660278361265d565b9150612741826126da565b604082019050919050565b6000602082019050818103600083015261276581612729565b9050919050565b7f4e487b7100000000000000000000000000000000000000000000000000000000600052602260045260246000fd5b600060028204905060018216806127b357607f821691505b602082108114156127c7576127c661276c565b5b50919050565b7f5265636f7264206973206e6f7420666f722073616c6500000000000000000000600082015250565b600061280360168361265d565b915061280e826127cd565b602082019050919050565b60006020820190508181036000830152612832816127f6565b9050919050565b7f496e76616c696420616d6d6f756e7420737570706c6965640000000000000000600082015250565b600061286f60188361265d565b915061287a82612839565b602082019050919050565b6000602082019050818103600083015261289e81612862565b9050919050565b7f5265636f726420616c7265616479206578697374730000000000000000000000600082015250565b60006128db60158361265d565b91506128e6826128a5565b602082019050919050565b6000602082019050818103600083015261290a816128ce565b905091905056fea26469706673582212205337800832bd455c542db6d9c09016d6c58cbd91982011ac5925b2491a0b370364736f6c634300080b0033",
  "immutableReferences": {},
  "source": "// SPDX-License-Identifier: GPL-3.0\r\n\r\npragma solidity >=0.7.0 <0.9.0;\r\n\r\ncontract Audio {\r\n    struct Record {\r\n        string title;\r\n        string artist;\r\n        string genre;\r\n        uint year;\r\n        uint price;\r\n        bool is_for_sale;\r\n        bytes32 fingerprint;\r\n        address payable holder;\r\n        string uri;\r\n    }\r\n    address private owner;\r\n    bytes32[] private recordList;\r\n    mapping(bytes32 => Record) records;\r\n\r\n    event RecordUpdated(\r\n        Record record\r\n    );\r\n\r\n    event RecordRegistered(\r\n        Record record\r\n    );\r\n\r\n    modifier onlyIfForSale(bytes32 key) {\r\n        require(records[key].is_for_sale, \"Record is not for sale\");\r\n        _;\r\n    }\r\n\r\n    modifier isHolder(bytes32 key, address holder) {\r\n        require(records[key].holder == holder, \"Caller is not the holder of this record\");\r\n        _;\r\n    }\r\n\r\n    modifier isOwner() {\r\n        require(msg.sender == owner, \"Caller is not the owner of this contract\");\r\n        _;\r\n    }\r\n\r\n    modifier recordExists(bytes32 key) {\r\n        require(records[key].fingerprint > 0, \"Record not found\");\r\n        _;\r\n    }\r\n\r\n    constructor() {\r\n        owner = msg.sender;\r\n    }\r\n\r\n    /**\r\n        Register a new record\r\n        @param title The title of the record\r\n        @param artist The artist of the record\r\n        @param genre The genre of the record\r\n        @param year The year of the record\r\n        @param price The price of the record\r\n        @param is_for_sale Whether the record is for sale\r\n        @param fingerprint The fingerprint of the record\r\n     */\r\n    function registerRecord(\r\n        string memory title,\r\n        string memory artist,\r\n        string memory genre,\r\n        uint year,\r\n        uint price, // price in Wei\r\n        bool is_for_sale,\r\n        bytes32 fingerprint,\r\n        string memory uri // ipfs link to the record\r\n    ) public {\r\n        require(records[fingerprint].fingerprint != fingerprint, \"Record already exists\");\r\n\r\n        Record memory record = Record(title, artist, genre, year, price, is_for_sale, fingerprint, payable(msg.sender), uri);\r\n        records[fingerprint] = record;\r\n\r\n        recordList.push(fingerprint);\r\n\r\n        emit RecordRegistered(record);\r\n    }\r\n\r\n    /**\r\n        Get info about a record\r\n        @param key The fingerprint of the record to retrieve.\r\n     */\r\n    function getRecord(bytes32 key) public view recordExists(key) returns (Record memory) {\r\n        Record memory record = records[key];\r\n\r\n        return record;\r\n    }\r\n\r\n    /**\r\n        Buy a record.\r\n        @param key The fingerprint of the record to buy.\r\n     */\r\n    function buyRecord(bytes32 key) payable public recordExists(key) onlyIfForSale(key) {\r\n        require(records[key].price == msg.value, \"Invalid ammount supplied\");\r\n\r\n        Record memory record = records[key];\r\n        record.is_for_sale = false;\r\n\r\n        record.holder.transfer(msg.value);\r\n\r\n        record.holder = payable(msg.sender);\r\n        records[key] = record;\r\n\r\n        emit RecordUpdated(record);\r\n    }\r\n\r\n    /**\r\n        Make the record available for purchase.\r\n        @param key The fingerprint of the record to be made available.\r\n     */\r\n    function setIsForSale(bytes32 key, bool status) public recordExists(key) isHolder(key, msg.sender) {\r\n        Record memory record = records[key];\r\n        record.is_for_sale = status;\r\n        records[key] = record;\r\n\r\n        emit RecordUpdated(record);\r\n    }\r\n\r\n    /**\r\n        Set price of record\r\n        @param key The fingerprint of the record to get.\r\n        @param price The new price of the record.\r\n     */\r\n    function setPrice(bytes32 key, uint price) public recordExists(key) isHolder(key, msg.sender) {\r\n        Record memory record = records[key];\r\n        record.price = price;\r\n        records[key] = record;\r\n\r\n        emit RecordUpdated(record);\r\n    }\r\n\r\n    /**\r\n        Transfer ownership of a record directly to another address.\r\n        @param key The fingerprint of the record to get.\r\n        @param new_holder The new holder of the record.\r\n     */\r\n    function transferRecord(bytes32 key, address payable new_holder) public recordExists(key) isHolder(key, msg.sender) {\r\n        Record memory record = records[key];\r\n        record.holder = new_holder;\r\n        records[key] = record;\r\n\r\n        emit RecordUpdated(record);\r\n    }\r\n\r\n    function getRecordList() public view returns (bytes32[] memory) {\r\n        return recordList;\r\n    }\r\n\r\n    function getOwner() public view returns (address) {\r\n        return owner;\r\n    }\r\n}",
  "sourcePath": "D:\\User Data\\Desktop\\dev\\AudioDAPP\\contracts\\Audio.sol",
  "compiler": {
    "name": "solc",
    "version": "0.8.11+commit.d7f03943.Emscripten.clang"
  },
  "schemaVersion": "3.4.4",
  "updatedAt": "2022-01-24T08:34:55.051Z",
  "networkType": "ethereum",
  "devdoc": {
    "kind": "dev",
    "methods": {
      "buyRecord(bytes32)": {
        "params": {
          "key": "The fingerprint of the record to buy."
        }
      },
      "getRecord(bytes32)": {
        "params": {
          "key": "The fingerprint of the record to retrieve."
        }
      },
      "registerRecord(string,string,string,uint256,uint256,bool,bytes32,string)": {
        "params": {
          "artist": "The artist of the record",
          "fingerprint": "The fingerprint of the record",
          "genre": "The genre of the record",
          "is_for_sale": "Whether the record is for sale",
          "price": "The price of the record",
          "title": "The title of the record",
          "year": "The year of the record"
        }
      },
      "setIsForSale(bytes32,bool)": {
        "params": {
          "key": "The fingerprint of the record to be made available."
        }
      },
      "setPrice(bytes32,uint256)": {
        "params": {
          "key": "The fingerprint of the record to get.",
          "price": "The new price of the record."
        }
      },
      "transferRecord(bytes32,address)": {
        "params": {
          "key": "The fingerprint of the record to get.",
          "new_holder": "The new holder of the record."
        }
      }
    },
    "version": 1
  },
  "userdoc": {
    "kind": "user",
    "methods": {
      "buyRecord(bytes32)": {
        "notice": "Buy a record."
      },
      "getRecord(bytes32)": {
        "notice": "Get info about a record"
      },
      "registerRecord(string,string,string,uint256,uint256,bool,bytes32,string)": {
        "notice": "Register a new record"
      },
      "setIsForSale(bytes32,bool)": {
        "notice": "Make the record available for purchase."
      },
      "setPrice(bytes32,uint256)": {
        "notice": "Set price of record"
      },
      "transferRecord(bytes32,address)": {
        "notice": "Transfer ownership of a record directly to another address."
      }
    },
    "version": 1
  }
}